{
  "_format": "hh-sol-artifact-1",
  "contractName": "stocktech",
  "sourceName": "contracts/stockTech.sol",
  "abi": [
    {
      "inputs": [
        {
          "internalType": "uint256",
          "name": "orderIDToDelete",
          "type": "uint256"
        }
      ],
      "name": "cancelOrder",
      "outputs": [],
      "stateMutability": "nonpayable",
      "type": "function"
    },
    {
      "inputs": [],
      "name": "getList",
      "outputs": [
        {
          "components": [
            {
              "internalType": "uint256",
              "name": "orderID",
              "type": "uint256"
            },
            {
              "internalType": "string",
              "name": "TradingCode",
              "type": "string"
            },
            {
              "internalType": "string",
              "name": "BOAccountNo",
              "type": "string"
            },
            {
              "internalType": "string",
              "name": "orderType",
              "type": "string"
            },
            {
              "internalType": "uint256",
              "name": "quantity",
              "type": "uint256"
            },
            {
              "internalType": "uint256",
              "name": "price",
              "type": "uint256"
            },
            {
              "internalType": "uint256",
              "name": "cost",
              "type": "uint256"
            }
          ],
          "internalType": "struct stocktech.Order[]",
          "name": "",
          "type": "tuple[]"
        }
      ],
      "stateMutability": "view",
      "type": "function"
    },
    {
      "inputs": [],
      "name": "getOrder",
      "outputs": [
        {
          "components": [
            {
              "internalType": "uint256",
              "name": "orderID",
              "type": "uint256"
            },
            {
              "internalType": "string",
              "name": "TradingCode",
              "type": "string"
            },
            {
              "internalType": "string",
              "name": "BOAccountNo",
              "type": "string"
            },
            {
              "internalType": "string",
              "name": "orderType",
              "type": "string"
            },
            {
              "internalType": "uint256",
              "name": "quantity",
              "type": "uint256"
            },
            {
              "internalType": "uint256",
              "name": "price",
              "type": "uint256"
            },
            {
              "internalType": "uint256",
              "name": "cost",
              "type": "uint256"
            }
          ],
          "internalType": "struct stocktech.Order",
          "name": "",
          "type": "tuple"
        }
      ],
      "stateMutability": "view",
      "type": "function"
    },
    {
      "inputs": [],
      "name": "getOrderAndHash",
      "outputs": [
        {
          "components": [
            {
              "internalType": "uint256",
              "name": "orderID",
              "type": "uint256"
            },
            {
              "internalType": "string",
              "name": "TradingCode",
              "type": "string"
            },
            {
              "internalType": "string",
              "name": "BOAccountNo",
              "type": "string"
            },
            {
              "internalType": "string",
              "name": "orderType",
              "type": "string"
            },
            {
              "internalType": "uint256",
              "name": "quantity",
              "type": "uint256"
            },
            {
              "internalType": "uint256",
              "name": "price",
              "type": "uint256"
            },
            {
              "internalType": "uint256",
              "name": "cost",
              "type": "uint256"
            }
          ],
          "internalType": "struct stocktech.Order",
          "name": "",
          "type": "tuple"
        },
        {
          "internalType": "bytes32",
          "name": "",
          "type": "bytes32"
        }
      ],
      "stateMutability": "view",
      "type": "function"
    },
    {
      "inputs": [
        {
          "internalType": "uint256",
          "name": "_ID",
          "type": "uint256"
        },
        {
          "internalType": "string",
          "name": "_TradingCode",
          "type": "string"
        },
        {
          "internalType": "string",
          "name": "_BOAccountNo",
          "type": "string"
        },
        {
          "internalType": "string",
          "name": "_type",
          "type": "string"
        },
        {
          "internalType": "uint256",
          "name": "_quantity",
          "type": "uint256"
        },
        {
          "internalType": "uint256",
          "name": "_price",
          "type": "uint256"
        }
      ],
      "name": "takeOrder",
      "outputs": [],
      "stateMutability": "nonpayable",
      "type": "function"
    }
  ],
  "bytecode": "0x608060405234801561001057600080fd5b5061131a806100206000396000f3fe608060405234801561001057600080fd5b50600436106100575760003560e01c80630255d5841461005c578063514fcac71461007b578063942b765a14610097578063957dbba4146100b5578063d36dedd2146100d1575b600080fd5b6100646100ef565b6040516100729291906111c6565b60405180910390f35b61009560048036038101906100909190610d2c565b610376565b005b61009f61054d565b6040516100ac9190611182565b60405180910390f35b6100cf60048036038101906100ca9190610d55565b6107ba565b005b6100d96108fc565b6040516100e691906111a4565b60405180910390f35b6100f7610b24565b6000806001600001546001800160016002016001600301600160040154600160050154600160060154604051602001610136979695949392919061110d565b604051602081830303815290604052805190602001209050600181816040518060e001604052908160008201548152602001600182018054600181600116156101000203166002900480601f0160208091040260200160405190810160405280929190818152602001828054600181600116156101000203166002900480156102005780601f106101d557610100808354040283529160200191610200565b820191906000526020600020905b8154815290600101906020018083116101e357829003601f168201915b50505050508152602001600282018054600181600116156101000203166002900480601f0160208091040260200160405190810160405280929190818152602001828054600181600116156101000203166002900480156102a25780601f10610277576101008083540402835291602001916102a2565b820191906000526020600020905b81548152906001019060200180831161028557829003601f168201915b50505050508152602001600382018054600181600116156101000203166002900480601f0160208091040260200160405190810160405280929190818152602001828054600181600116156101000203166002900480156103445780601f1061031957610100808354040283529160200191610344565b820191906000526020600020905b81548152906001019060200180831161032757829003601f168201915b505050505081526020016004820154815260200160058201548152602001600682015481525050915092509250509091565b6000806000905060005b6000805490508110156103cc57836000828154811061039b57fe5b90600052602060002090600702016000015414156103bf57809250600191506103cc565b8080600101915050610380565b5080156105485760008290505b6001600080549050038110156104d257600060018201815481106103f957fe5b90600052602060002090600702016000828154811061041457fe5b90600052602060002090600702016000820154816000015560018201816001019080546001816001161561010002031660029004610453929190610b61565b506002820181600201908054600181600116156101000203166002900461047b929190610b61565b50600382018160030190805460018160011615610100020316600290046104a3929190610b61565b5060048201548160040155600582015481600501556006820154816006015590505080806001019150506103d9565b5060008054806104de57fe5b600190038181906000526020600020906007020160008082016000905560018201600061050b9190610be8565b60028201600061051b9190610be8565b60038201600061052b9190610be8565b600482016000905560058201600090556006820160009055505090555b505050565b60606000805480602002602001604051908101604052809291908181526020016000905b828210156107b157838290600052602060002090600702016040518060e001604052908160008201548152602001600182018054600181600116156101000203166002900480601f0160208091040260200160405190810160405280929190818152602001828054600181600116156101000203166002900480156106375780601f1061060c57610100808354040283529160200191610637565b820191906000526020600020905b81548152906001019060200180831161061a57829003601f168201915b50505050508152602001600282018054600181600116156101000203166002900480601f0160208091040260200160405190810160405280929190818152602001828054600181600116156101000203166002900480156106d95780601f106106ae576101008083540402835291602001916106d9565b820191906000526020600020905b8154815290600101906020018083116106bc57829003601f168201915b50505050508152602001600382018054600181600116156101000203166002900480601f01602080910402602001604051908101604052809291908181526020018280546001816001161561010002031660029004801561077b5780601f106107505761010080835404028352916020019161077b565b820191906000526020600020905b81548152906001019060200180831161075e57829003601f168201915b50505050508152602001600482015481526020016005820154815260200160068201548152505081526020019060010190610571565b50505050905090565b8860016000018190555087876001800191906107d7929190610c30565b508585600160020191906107ec929190610c30565b50838360016003019190610801929190610c30565b5081600160040181905550806001600501819055508082026001600601819055506000600190806001815401808255809150506001900390600052602060002090600702016000909190919091506000820154816000015560018201816001019080546001816001161561010002031660029004610880929190610b61565b50600282018160020190805460018160011615610100020316600290046108a8929190610b61565b50600382018160030190805460018160011615610100020316600290046108d0929190610b61565b506004820154816004015560058201548160050155600682015481600601555050505050505050505050565b610904610b24565b60016040518060e001604052908160008201548152602001600182018054600181600116156101000203166002900480601f0160208091040260200160405190810160405280929190818152602001828054600181600116156101000203166002900480156109b45780601f10610989576101008083540402835291602001916109b4565b820191906000526020600020905b81548152906001019060200180831161099757829003601f168201915b50505050508152602001600282018054600181600116156101000203166002900480601f016020809104026020016040519081016040528092919081815260200182805460018160011615610100020316600290048015610a565780601f10610a2b57610100808354040283529160200191610a56565b820191906000526020600020905b815481529060010190602001808311610a3957829003601f168201915b50505050508152602001600382018054600181600116156101000203166002900480601f016020809104026020016040519081016040528092919081815260200182805460018160011615610100020316600290048015610af85780601f10610acd57610100808354040283529160200191610af8565b820191906000526020600020905b815481529060010190602001808311610adb57829003601f168201915b505050505081526020016004820154815260200160058201548152602001600682015481525050905090565b6040518060e00160405280600081526020016060815260200160608152602001606081526020016000815260200160008152602001600081525090565b828054600181600116156101000203166002900490600052602060002090601f016020900481019282601f10610b9a5780548555610bd7565b82800160010185558215610bd757600052602060002091601f016020900482015b82811115610bd6578254825591600101919060010190610bbb565b5b509050610be49190610cb0565b5090565b50805460018160011615610100020316600290046000825580601f10610c0e5750610c2d565b601f016020900490600052602060002090810190610c2c9190610cb0565b5b50565b828054600181600116156101000203166002900490600052602060002090601f016020900481019282601f10610c7157803560ff1916838001178555610c9f565b82800160010185558215610c9f579182015b82811115610c9e578235825591602001919060010190610c83565b5b509050610cac9190610cb0565b5090565b5b80821115610cc9576000816000905550600101610cb1565b5090565b60008083601f840112610cdf57600080fd5b8235905067ffffffffffffffff811115610cf857600080fd5b602083019150836001820283011115610d1057600080fd5b9250929050565b600081359050610d26816112cd565b92915050565b600060208284031215610d3e57600080fd5b6000610d4c84828501610d17565b91505092915050565b600080600080600080600080600060c08a8c031215610d7357600080fd5b6000610d818c828d01610d17565b99505060208a013567ffffffffffffffff811115610d9e57600080fd5b610daa8c828d01610ccd565b985098505060408a013567ffffffffffffffff811115610dc957600080fd5b610dd58c828d01610ccd565b965096505060608a013567ffffffffffffffff811115610df457600080fd5b610e008c828d01610ccd565b94509450506080610e138c828d01610d17565b92505060a0610e248c828d01610d17565b9150509295985092959850929598565b6000610e408383610f93565b905092915050565b6000610e538261121b565b610e5d818561123e565b935083602082028501610e6f856111f6565b8060005b85811015610eab5784840389528151610e8c8582610e34565b9450610e9783611231565b925060208a01995050600181019050610e73565b50829750879550505050505092915050565b610ec68161126b565b82525050565b6000610ed782611226565b610ee1818561124f565b9350610ef181856020860161127f565b610efa816112bc565b840191505092915050565b600081546001811660008114610f225760018114610f4757610f8b565b607f6002830416610f338187611260565b955060ff1983168652808601935050610f8b565b60028204610f558187611260565b9550610f6085611206565b60005b82811015610f8257815481890152600182019150602081019050610f63565b82880195505050505b505092915050565b600060e083016000830151610fab60008601826110e7565b5060208301518482036020860152610fc38282610ecc565b91505060408301518482036040860152610fdd8282610ecc565b91505060608301518482036060860152610ff78282610ecc565b915050608083015161100c60808601826110e7565b5060a083015161101f60a08601826110e7565b5060c083015161103260c08601826110e7565b508091505092915050565b600060e08301600083015161105560008601826110e7565b506020830151848203602086015261106d8282610ecc565b915050604083015184820360408601526110878282610ecc565b915050606083015184820360608601526110a18282610ecc565b91505060808301516110b660808601826110e7565b5060a08301516110c960a08601826110e7565b5060c08301516110dc60c08601826110e7565b508091505092915050565b6110f081611275565b82525050565b61110761110282611275565b6112b2565b82525050565b6000611119828a6110f6565b6020820191506111298289610f05565b91506111358288610f05565b91506111418287610f05565b915061114d82866110f6565b60208201915061115d82856110f6565b60208201915061116d82846110f6565b60208201915081905098975050505050505050565b6000602082019050818103600083015261119c8184610e48565b905092915050565b600060208201905081810360008301526111be818461103d565b905092915050565b600060408201905081810360008301526111e0818561103d565b90506111ef6020830184610ebd565b9392505050565b6000819050602082019050919050565b60008190508160005260206000209050919050565b600081519050919050565b600081519050919050565b6000602082019050919050565b600082825260208201905092915050565b600082825260208201905092915050565b600081905092915050565b6000819050919050565b6000819050919050565b60005b8381101561129d578082015181840152602081019050611282565b838111156112ac576000848401525b50505050565b6000819050919050565b6000601f19601f8301169050919050565b6112d681611275565b81146112e157600080fd5b5056fea26469706673582212204152c1f628e59212da972a4f7354081f4fb0a453d07f413e0eb92556f8eaf6af64736f6c63430007030033",
  "linkReferences": {},
  "deployedLinkReferences": {}
}